:020000040800F2
:10000000B806002045010008810D0008790D0008A0
:100010007D0D000829090008F51500080000000002
:100020000000000000000000000000000D0F0008AC
:10003000510C000800000000F50D00085D010008EB
:100040005F0100085F0100085F0100085F01000810
:100050005F0100085F0100085F0100085F01000800
:100060005F0100085F0100085F0100085F010008F0
:100070005F0100085F0100085F0100085F010008E0
:100080005F0100085F0100085F0100085F010008D0
:100090005F0100085F0100085F0100085F010008C0
:1000A0005F0100085F0100085F0100085F010008B0
:1000B0005F0100085F0100085F0100085F010008A0
:1000C0005F0100085F0100085F0100085F01000890
:1000D0005F01000865130008A11300085F01000814
:1000E0005F0100085F0100085F0100085F01000870
:1000F0005F0100085F0100085F0100085F01000860
:100100005F0100085F0100085F0100085F0100084F
:100110005F0100085F0100085F0100085F0100083F
:100120005F0100085F0100085F0100085F0100082F
:10013000DFF80CD000F0FEFA004800473129000833
:10014000B80600200648804706480047FEE7FEE75D
:10015000FEE7FEE7FEE7FEE7FEE7FEE7FEE7FEE777
:10016000051300083101000840EA01039B0703D092
:1001700009E008C9121F08C0042AFAD203E011F8E6
:10018000013B00F8013B521EF9D27047D2B201E0A8
:1001900000F8012B491EFBD270470022F6E710B58C
:1001A00013460A4604461946FFF7F0FF204610BDE5
:1001B00080EA010210B502F00043400022D04A005C
:1001C0001FD0010E01EB1261C0F35600C2F35602BC
:1001D00040F4000042F40002A0FB022000047F393A
:1001E000140400D0401C50EA124001D44000491EC3
:1001F000C2B20C0604EBD010401C4008802A02D08A
:1002000003E0002010BD20F00100002900DA0020EA
:10021000184310BD30B480EA010202F0004530F00E
:10022000004221F0004013D090B1C30DD40DC2F3B1
:100230001601C0F31600E41A41F4000140F4000274
:100240007D34914201D3641C00E04900002C02DAA5
:1002500030BC002070474FF400000023914201D3CE
:10026000891A034340084FEA4101F7D151B1914245
:1002700002D14FF0004105E002D24FF0010101E050
:100280006FF0010103EBC450284430BC00F063B8A8
:10029000C10F80EAE0700844CA079623002100F0ED
:1002A00063B800F0004230F000400AD0C10D01F503
:1002B0006071C0F3160042EA0151C20840071143C1
:1002C000704700200146704730B50B4601460020BC
:1002D0002022012409E021FA02F59D4205D303FA08
:1002E00002F5491B04FA02F52844151EA2F1010289
:1002F000F1DC30BD2DE9F05F0546002092469B46BB
:1003000088460646814640241BE02846414647462B
:10031000224600F030FA53465A46C01A914110D393
:1003200011461846224600F017FA2D1A67EB01080D
:100330004F4622460120002100F00EFA17EB00097B
:100340004E41201EA4F10104DFDC484631462A4616
:100350004346BDE8F09F0029A8BF7047401C4900F4
:1003600008BF20F00100704710B4B0FA80FC00FA1A
:100370000CF050EA010404BF10BC704749B1CCF145
:10038000200421FA04F411FA0CF118BF01212143D1
:100390000843A3EB0C01CB1D4FEA00614FEA10208C
:1003A00042BF002010BC704700EBC350104400292E
:1003B000A4BF10BC7047401C490008BF20F00100DA
:1003C00010BC70472DE9FE4F804681EA0300C00F44
:1003D0000C46009021F0004123F00045B8EB0200EC
:1003E000A94105D24046214690461C460B4602468E
:1003F00023F00040104347D0270DC7F30A00C3F392
:100400000A510290401A019040286BDAC3F313009E
:1004100040F4801B0098924620B10023D2EB030ADF
:1004200063EB0B0B01985946C0F14002504600F0B7
:1004300093F906460D4650465946019A00F0ABF92D
:1004400010EB08006141002487EA115284EAE77347
:100450001A4340D0009A62B3019A012A4FEA075228
:1004600015DC001B61EB02014FF0004202EA07526B
:10047000CDE90042001C41F5801132462B4600F0C8
:10048000ABF903B0BDE8F08F40462146F9E7001B09
:1004900061EB0201001C41F5801300185B4120183C
:1004A000A2F5001747EB030140EAD570B6196D417C
:1004B00011E06D084FEA360645EAC0754FEA07526B
:1004C000001B61EB0201001C41F5801149084FEA55
:1004D00030000019514132462B4603B0BDE8F04FC1
:1004E00000F06BB90098012240000023D0EB02021B
:1004F00063EBE073009821464FEAE074B8EB00002C
:1005000061EB0401E9E783F000435BE781F0004120
:1005100058E72DE9FE4F81EA030404F0004421F07E
:10052000004100944FF0000B23F0004350EA010417
:100530005ED052EA03045BD0C3F30A54C1F30A55F8
:100540002C44A4F2F3340194A0FB0254C1F3130130
:1005500041F48011C3F3130343F4801301FB0244FD
:1005600000FB034E840A970A44EA815447EA835702
:10057000A4FB076802958D0A05FB07854FEA932CBB
:1005800004FB0C542705029D4FEA065847EA16372C
:10059000B5EB08056EEB070C870E920E47EA811744
:1005A00042EA8312A7FB0201B6EB0B0164EB0004E5
:1005B0002B0D43EA0C335E1844EB1C50DA465146CF
:1005C000E7FB0201C5F313044FEA0B3343EA14536C
:1005D0004FEA0432019C43EA0603A4F10C0402949E
:1005E000009CCDE900B400F0F7F803B0BDE8F08F4F
:1005F00000200146F9E72DE9F04D81EA030404F0FB
:10060000004B21F0004514464FF0000A23F0004152
:1006100050EA050220D054EA01021DD0C5F30A5762
:100620000246C5F31303C1F31300C1F30A5640F4A5
:10063000801543F48013A7EB0608101BD64608F27A
:10064000FD3873EB050002D308F1010801E09218B0
:100650005B41B8F1000F03DA00200146BDE8F08DE0
:1006600000204FF48011064684460EE0171B73EB02
:10067000050705D3121B63EB050306434CEA010C87
:1006800049084FEA300092185B4150EA0107EDD16A
:1006900052EA030012D082EA040083EA050108430B
:1006A00005D0101BAB4106D20122002306E0002238
:1006B0004FF0004302E06FF0010253101AEB060006
:1006C0004CEB085110EB0A0041EB0B01BDE8F04D7B
:1006D00000F073B8C1F30A52C1F3130140F2FF33C3
:1006E00041F480119A4202DA00200146704740F23C
:1006F00033439A42A2F2334202DC524200F03BB84A
:1007000000F02AB830B5041E71F1000404DB4FF08C
:100710000044404264EB0101141E73F1000405DB48
:100720001C464FF00043524263EB0403994208BF5A
:10073000904230BD064C074D06E0E06840F00103F2
:1007400094E8070098471034AC42F6D3FFF7F4FC66
:10075000A02F0008C02F0008202A04DB203A00FA4E
:1007600002F1002070479140C2F1200320FA03F308
:10077000194390407047202A04DB203A21FA02F006
:100780000021704721FA02F3D040C2F120029140CB
:10079000084319467047202A06DBCB17203A41FA56
:1007A00002F043EAE07306E041FA02F3D040C2F1FE
:1007B0002002914008431946704710B5141E73F18A
:1007C000000408DA401C41F1000192185B411A4311
:1007D00001D120F0010010BD2DE9F04D92469B465D
:1007E00011B1B1FA81F202E0B0FA80F22032904603
:1007F000FFF7B2FF04460F4640EA0A0041EA0B0148
:1008000053465A46084313D0114653EA010019D003
:10081000C8F140025046FFF7AEFF05460E4650466F
:1008200059464246FFF798FF084305D0012004E0EF
:1008300020463946BDE8F08D0020054346EAE076C3
:100840002C4337430A986305E40AA0EB0800002212
:10085000FD0A44EA47540A3002D500200146E9E780
:10086000010510196941DDE9084500196941BDE834
:10087000F04DA2E770B5012420E0154951F824009D
:1008800000F024FF022500BF002012490870032158
:10089000342000F0A1FF642002F012F80D48007827
:1008A00040B10B4850F824100BA001F067FB00F09A
:1008B000E7FB70BD6D1E002DE6D1641C0A2CDCDB4D
:1008C0000BA001F05BFB10A001F058FB00BFF0E7AC
:1008D000742B0008000000202564206261756420EC
:1008E00066696E642073656E736F720D0A0D0A007F
:1008F00063616E206E6F742066696E642073656E2E
:10090000736F720D0A000000706C6561736520637F
:100910006865636B20796F757220636F6E6E6563B7
:1009200074696F6E0D0A000000BFFEE703468B423C
:1009300003DB934201DC012070470020FCE700004C
:1009400010B5454890F90000632874D00EDC552896
:1009500036D006DC42283BD0432863D0522875D1DC
:1009600050E061280FD0622870D13EE06D2811D090
:1009700004DC652815D0682868D164E0722849D065
:10098000752863D114E001F0E3F910B133A001F050
:10099000F5FA5BE001F004FA10B136A001F0EEFACE
:1009A00054E001F025FA10B132A001F0E7FA4DE071
:1009B000062001F003F910B134A001F0DFFA45E0A0
:1009C000002001F0FBF810B130A001F0D7FA3DE0B3
:1009D000062001F08BF918B132A001F0CFFA03E044
:1009E0003549886900F072FE30E0022001F07EF99E
:1009F00018B12CA001F0C2FA03E02F49886800F07A
:100A000065FE23E0062001F03FF910B12BA001F0B4
:100A1000B5FA1BE0032001F037F910B127A001F06F
:100A2000ADFA13E01E2001F0FBF810B128A001F090
:100A3000A5FA0BE0FFE7022001F0F2F810B124A0C4
:100A400001F09CFA02E000F01BFB00BF00BFFF209A
:100A50000149087010BD0000010000200D0A536517
:100A6000742041636343616C69204572726F720D3B
:100A70000A0000000D0A536574204D616743616CE4
:100A800069204572726F720D0A0000000D0A5365ED
:100A9000742042616E647769647468204572726F75
:100AA000720D0A000D0A5365742042617564204579
:100AB00072726F720D0A0000742B00080D0A5365E4
:100AC000742052617465204572726F720D0A0000C5
:100AD0000D0A53657420525357204572726F720D80
:100AE0000A00000010B504461C4801780078401C3C
:100AF0001A4A10701A48445410460078032800DA45
:100B000010BD16480078322802DB00201349087017
:100B10001248007803281EDB114840780D2810D1B8
:100B20000F4880780A280CD10D48007840B20D4952
:100B3000087032210A48FFF730FB0020074908708F
:100B400009E00748407806490870084680784870F0
:100B500002200249087000BFD2E700000200002016
:100B600060000020010000202DE9F84F07460C46E8
:100B700090464FF00009CA4600250026A346A01D56
:100B800000900425A7F15000102836D2DFE800F0CD
:100B90001608190F1C1F2225282B2E353535353107
:100BA0004FF0340903254FF0400A012627E04FF0AB
:100BB0003D0903254FF02E0A012620E04FF03009B1
:100BC0001DE04FF037091AE04FF03A0917E04FF0F7
:100BD000410914E04FF0450911E04FF049090EE0DA
:100BE0004FF04D090BE04FF0510908E04FF0550967
:100BF00005E01448D0F8009001E0BDE8F88F00BF90
:100C0000B8F1030F01D1032500265DB16A000E493A
:100C100001EB49005946FFF7A7FA294648460B4A17
:100C2000126890475EB17200074901EB4A000099D3
:100C3000FFF79AFA31465046044A1268904700BFBF
:100C4000DBE70000280000209201002014000020B3
:100C5000704710B50446204601F032FE10BD2DE964
:100C6000F041024600250026002000230024002732
:100C700091F803C00CF00F0591F803C00CF0100CB4
:100C8000BCF1000F03D091F802C04CEA050591F8C1
:100C900000C0BCF1000F31D0146800202BE04FF0F1
:100CA000010C0CFA00F3B1F800C00CEA03069E42F6
:100CB00020D183004FF00F0C0CFA03F7BC4305FA68
:100CC00003FC4CEA040491F803C0BCF1280F06D1E0
:100CD0004FF0010C0CFA00FCC2F814C00AE091F8C5
:100CE00003C0BCF1480F05D14FF0010C0CFA00FC19
:100CF000C2F810C0401C0828D1D31460B1F800C05D
:100D0000BCF1FF0F34DD546800202EE000F1080C28
:100D10004FF0010808FA0CF3B1F800C00CEA030622
:100D20009E4221D183004FF00F0C0CFA03F7BC4315
:100D300005FA03FC4CEA040491F803C0BCF1280F47
:100D400005D100F1080C08FA0CF8C2F8148091F8EB
:100D500003C0BCF1480F07D100F1080C4FF00108A7
:100D600008FA0CF8C2F81080401C0828CED3546052
:100D7000BDE8F0810161704700BFFEE700BFFEE7FC
:100D80007047000070B5002100230F22C47804B31F
:100D9000154C246804F4E064C4F5E064210AC1F150
:100DA0000403CA40447804FA03F1847814402143D0
:100DB00009010E4C0678A155047804F01F050124A2
:100DC000AC4005786D11AD0005F1E025C5F8004196
:100DD00009E0047804F01F050124AC40044D0678B6
:100DE000761145F8264070BD0CED00E000E400E00F
:100DF00080E100E07047000029B1064AD269024351
:100E0000044BDA6104E0034AD2698243014BDA61A0
:100E1000704700000010024029B1064A926902435F
:100E2000044B9A6104E0034A92698243014B9A6140
:100E3000704700000010024030B50021002200245D
:100E400000232D4D6D6805F00C0121B1042905D05A
:100E5000082923D105E0294D056022E0274D0560D2
:100E60001FE0254D6D6805F47012234D6D6805F483
:100E70008034022505EB92421CB9214D5543056093
:100E80000BE01D4D6D6805F400351DB11C4D55433B
:100E9000056002E0194D5543056002E0174D0560FD
:100EA00000BF00BF144D6D6805F0F0010909154D34
:100EB0006B5C0568DD4045600F4D6D6805F4E061D1
:100EC000090A104D6B5C4568DD4085600A4D6D6810
:100ED00005F46051C90A0B4D6B5C4568DD40C56087
:100EE000054D6D6805F44041890B074D6B5CC56885
:100EF000B5FBF3F5056130BD0010024000127A0029
:100F000000093D0048000020580000207047000004
:100F100010B5002233E0362806D039280CD03C2802
:100F200012D03F2820D117E0164B93F9003043F040
:100F30000103144C23701FE0124B93F9003043F06F
:100F40000203104C237017E00E4B93F9003043F06E
:100F500008030C4C23700FE00A4B93F9003043F068
:100F60000403084C237007E0064B1B7843F0800312
:100F70005BB2044C237000BF00BF401C521C8A426D
:100F8000C9D310BD0000002070B504460D462946A7
:100F9000204600F011FB70BD10B500F001F810BD47
:100FA0000CB50020019000903348006840F4803078
:100FB0003149086000BF3048006800F400300090FC
:100FC0000198401C0190009818B90198B0F5A06FE5
:100FD000F1D12948006800F4003010B101200090E0
:100FE00001E0002000900098012843D123480068C8
:100FF00040F01000214908600846006820F0030016
:1010000008600846006840F0020008601A4840681E
:10101000194948600846406848600846406840F4FE
:10102000806048600846406820F47C1048600846AC
:10103000406840F4E81048600846006840F080705E
:10104000086000BF0C48006800F000700028F9D06C
:101050000948406820F00300074948600846406896
:1010600040F00200486000BF0348406800F00C00F8
:101070000828F9D10CBD00000010024000200240F9
:1010800010B5154800F07AFF144800F077FF14A05F
:1010900000F074FF1E4800F071FF1EA000F06EFF0C
:1010A00026A000F06BFF30A000F068FF3BA000F02E
:1010B00065FF47A000F062FF53A000F05FFF6048AB
:1010C00000F05CFF5FA000F059FF6BA000F056FF3E
:1010D000704800F053FF10BD5C2F00089C2D0008E5
:1010E000554152542053454E443A615C725C6E2027
:1010F0002020416363656C65726174696F6E206363
:10110000616C6962726174696F6E2E0D0A00000075
:10111000F42E0008554152542053454E443A555C34
:10112000725C6E20202042616E647769647468206E
:10113000696E6372656173652E0D0A0055415254E4
:101140002053454E443A755C725C6E20202042610B
:101150006E64776964746820726564756374696F1E
:101160006E2E0D0A00000000554152542053454E8A
:10117000443A425C725C6E202020426175642072A9
:1011800061746520696E6372656173656420746F54
:10119000203131353230302E0D0A00005541525485
:1011A0002053454E443A625C725C6E2020204261BE
:1011B0007564207261746520726564756374696F0B
:1011C0006E20746F20393630302E0D0A000000007A
:1011D000554152542053454E443A525C725C6E2045
:1011E00020205468652072657475726E2072617477
:1011F0006520696E6372656173657320746F203159
:1012000030487A2E0D0A0000554152542053454E65
:10121000443A725C725C6E202020546865207265CE
:101220007475726E20726174652072656475637482
:10123000696F6E20746F2031487A2E0D0A0000000D
:10124000902E0008554152542053454E443A635C59
:10125000725C6E20202052657475726E20636F6E12
:1012600074656E743A20616363656C65726174695C
:101270006F6E2E0D0A000000554152542053454E0A
:10128000443A685C725C6E20202068656C702E0D9C
:101290000A0000003C2E0008042808D14FF0E0218D
:1012A000096941F004014FF0E022116107E04FF0BD
:1012B000E021096921F004014FF0E022116170473B
:1012C00010B56FF00400FFF7E7FF0A4800680A490D
:1012D000B0FBF1F0094908800846008800EB4001A6
:1012E000C1EBC0104FF6FF7101EAC000044908804D
:1012F00010BD00003400002000127A002C000020F5
:101300002E00002010B51348006840F0010011497C
:10131000086008464068104908400E494860084681
:1013200000680E4908400B4908600846006820F430
:10133000802008600846406820F4FE0048604FF4B2
:101340001F008860FFF728FE4FF000600449086026
:1013500010BD0000001002400000FFF8FFFFF6FE85
:1013600008ED00E010B540F225510B4800F05FF8A1
:1013700058B1094800F016F9C4B22046FFF7B2FB95
:1013800040F22551044800F02AF84FF45871034800
:1013900000F025F810BD0000003801400044004076
:1013A00010B540F22551084800F041F858B1064800
:1013B00000F0F8F8C4B2204600F000FB40F22551DE
:1013C000014800F00CF810BD0044004001F4007228
:1013D000B2F5007F00D100BFCA430280704710B54C
:1013E0000022002340F66A14A14200D100BF0A1275
:1013F00001249440A3B2DC43048010BD21B1828952
:1014000042F40052828104E082894DF6FF731A4053
:101410008281704702460020B1F5007F00D100BFF5
:1014200013880B400BB1012000E00020704770B51D
:101430000246002400230025002040F66A16B1422F
:1014400000D100BFC1F3421501F01F03012606FAC7
:1014500003F3012D02D19689334006E0022D02D11B
:10146000168A334001E0968A33400C12012606FAB0
:1014700004F41688344013B10CB1012000E00020C0
:1014800070BDF0B50346002400260025002040F67C
:101490006A17B94200D100BF1846C1F3421401F0E7
:1014A0001F06012707FA06F5012C01D10C3004E0D4
:1014B000022C01D1103000E014301AB107682F431C
:1014C000076002E00768AF430760F0BD2DE9F04711
:1014D00086B005460E460024A24600BFA14600275E
:1014E000B08900B100BF2F462C8A4CF6FF70044033
:1014F000F08804432C82AC894EF6F3100440B08887
:1015000031890843718908430443AC81AC8A4FF6A2
:10151000FF400440B0890443AC8201A8FFF78CFC73
:101520001F48874202D1DDF810A001E0DDF80CA0D1
:10153000A88900F4004040B10AEBCA0000EB0A1091
:1015400031684900B0FBF1F807E00AEBCA0000EB94
:101550000A1031688900B0FBF1F86420B8FBF0F0A4
:1015600004012009642101FB1089A88900F40040CE
:1015700040B1322000EBC900B0FBF1F000F00700F1
:10158000044308E0322000EB09106421B0FBF1F0C5
:1015900000F00F0004432C8106B0BDE8F087000086
:1015A0000038014001468888C0F308007047C1F345
:1015B000080282807047000070B504460D46002680
:1015C0000CE000BF80210A48FFF724FF0028F9D073
:1015D00014F8011B0648FFF7EAFF761CAE42F0D371
:1015E00000BF40210248FFF715FF0028F9D070BD69
:1015F0000044004000BFFEE710B586B0044601215C
:1016000044F20400FFF708FC4FF40070ADF814003A
:1016100018208DF8170003208DF8160005A9294819
:10162000FFF71DFB4FF48060ADF8140004208DF827
:10163000170005A92348FFF712FB25208DF80000AD
:1016400003208DF801008DF8020001208DF80300C1
:101650006846FFF797FB01940020ADF80800ADF84D
:101660000A00ADF80C00ADF810000C20ADF80E002B
:1016700001A91548FFF72AFF002240F227711248FE
:10168000FFF7FFFE012240F225510F48FFF7F9FE58
:1016900040210D48FFF79AFE01210B48FFF7AEFEEF
:1016A00025208DF8000001208DF8010007208DF81D
:1016B000020001208DF803006846FFF763FB06B0C7
:1016C00010BD0000000801400038014010B586B090
:1016D000044601210420FFF79FFB01214804FFF786
:1016E0008BFB0220ADF8140010208DF817000320AA
:1016F0008DF8160005A92548FFF7B1FA0221234805
:10170000FFF738FB0420ADF8140018208DF81700FF
:1017100003208DF8160005A91C48FFF7A0FA082041
:10172000ADF8140004208DF8170005A91748FFF73D
:1017300096FA01940020ADF80800ADF80A00ADF863
:101740000C00ADF810000C20ADF80E0001A91048F7
:10175000FFF7BCFE012240F225510D48FFF791FE34
:1017600001210B48FFF74AFE26208DF800000120DA
:101770008DF8010008208DF8020001208DF803008B
:101780006846FFF7FFFA06B010BD000000080140F0
:1017900000440040014611B96FF00500704702484F
:1017A00001600020FAE70000180000200246032A2A
:1017B00002D96FF0050070470448026004480170C8
:1017C0000020044B186000BFF5E700002400002053
:1017D0001C000020200000202DE9FC4104460D469D
:1017E0006019902803D36FF00500BDE8FC816448C0
:1017F000006830B1012824D0022857D0032877D1BF
:1018000077E0042D02D96FF00500EEE75D4800682F
:1018100010B96FF00400E8E7FF208DF80000AA205F
:101820008DF8010027208DF80200E0B28DF803004A
:10183000200A8DF8040005216846524A1268904734
:1018400099E05048006810B96FF00400CDE74FF6FA
:10185000FF7000EA4506701DB0F5807F02DD6FF075
:101860000300C2E7484800788DF8000003208DF897
:101870000100200A8DF80200E0B28DF80300280A6A
:101880008DF80400E8B28DF805000621684600F0E6
:1018900085FB064630128DF80600F0B28DF8070081
:1018A00008216846374A1268904764E0032D02D940
:1018B0006FF0050099E73548006810B96FF0040033
:1018C00093E7FF208DF80000AA208DF80100272063
:1018D0008DF80200E0B28DF80300200A8DF80400B4
:1018E0000522694628480078284B1B68984742E043
:1018F0003EE02748006810B96FF0040075E74FF626
:10190000FF7000EA4506B6F5807F02DD6FF0030048
:101910006BE7E1B21C4A12785206100E33461D4A9C
:10192000DFF86CC0DCF800C0E04701281FD11A487E
:10193000006810B96FF0040057E7002710E0154861
:1019400010F81700012101EB4701124A515C40EAEF
:10195000012000B23919114A22F81100781C87B20F
:10196000AF42ECD3294620460B4A1268904702E06A
:101970006FF0050039E700BF09480460002034E734
:1019800024000020040000201C0000201000002083
:101990000C00002092000020140000209201002082
:1019A00028000020014611B96FF005007047024879
:1019B00001600020FAE70000140000202DE9FC413E
:1019C00080467248006808B9BDE8FC81704801682B
:1019D0000068401C6E4A10606E4800F801806E4836
:1019E000006830B1012859D0022874D0032854D19E
:1019F000BCE06848007855280CD065480068401E57
:101A00006349086008466349491C0268481EFEF79E
:101A1000ABFBD9E75E4800680B283ED30A215D483E
:101A200000F0D8FA07465B48807AB8420CD0584894
:101A30000068401E5649086008465649491C02681D
:101A4000481EFEF791FBBFE7524880785149C9789C
:101A500040EA0120ADF800004E4800794D4949792F
:101A600040EA0120ADF802004A4880794949C97925
:101A700040EA0120ADF804004648007A4549497A19
:101A800040EA0120ADF80600424948780422694640
:101A9000FFF76AF800203E4908606BE03C480068A8
:101AA000022861D93B48407803280CD038480068A8
:101AB000401E3749086008463649491C0268481EDE
:101AC000FEF752FB80E733488078401D30490968B3
:101AD000884201D978E748E02D480068401E2D492A
:101AE000095C2B480068801E2A4A105C41EA0025E8
:101AF00027480088801E81B2104600F04FFA064643
:101B0000B5420CD022480068401E214908600846B2
:101B10002049491C0268481EFEF726FB54E71D4871
:101B200080784510002414E0042000EB440019499B
:101B3000085C032101EB4401164A515C40EA012094
:101B400000B2164909682144154A22F81100601CA8
:101B500084B2AC42E8DB2946104800680B4A1268A0
:101B6000904700200A49086004E000BF00200849AF
:101B7000086000BF00BF06480068B0F5807F02D152
:101B800000200349086000BF1EE700001400002089
:101B900020000020920000202400002028000020C7
:101BA00092010020014611B96FF00500704702480C
:101BB00001600020FAE700000400002010B5044690
:101BC0000622002120B2FEF7B1FE10B96FF0050029
:101BD00010BD4BF28851692000F032F910B16FF05E
:101BE0000200F5E70C480068012804D114200B49D5
:101BF0000968884706E00848006818B901200749C5
:101C000009688847A1B21F2000F01AF910B16FF0DF
:101C10000200DDE70020DBE72400002018000020A0
:101C200010B5044640F6FF72012120B2FEF77EFE99
:101C300010B96FF0050010BD4BF28851692000F01B
:101C4000FFF810B16FF00200F5E70D4800680128B9
:101C500004D114200B490968884706E00848006849
:101C600018B90120074909688847A1B2022000F08D
:101C7000E7F810B16FF00200DDE70020DBE70000BD
:101C8000240000201800002010B504460D22012178
:101C900020B2FEF74BFE10B96FF0050010BD4BF2FD
:101CA0008851692000F0CCF810B16FF00200F5E720
:101CB0000C480068012804D114200B4909688847A2
:101CC00006E00848006818B90120074909688847F4
:101CD000A1B2032000F0B4F810B16FF00200DDE70C
:101CE0000020DBE7240000201800002010B5044687
:101CF0000722012120B2FEF719FE10B96FF005008E
:101D000010BD4BF28851692000F09AF810B16FF0C5
:101D10000200F5E70C480068012804D114200B49A3
:101D20000968884706E00848006818B90120074993
:101D300009688847A1B2042000F082F810B16FF062
:101D40000200DDE70020DBE724000020180000206F
:101D500010B54BF28851692000F072F810B16FF0A5
:101D6000020010BD0C480068012804D114200B4962
:101D70000968884706E00848006818B90120074943
:101D8000096888470121084600F05AF810B16FF041
:101D90000200E6E70020E4E724000020180000200D
:101DA00010B54BF28851692000F04AF810B16FF07D
:101DB000020010BD0C480068012804D114200B4912
:101DC0000968884706E00848006818B901200749F3
:101DD000096888470721012000F032F810B16FF040
:101DE0000200E6E70020E4E72400002018000020BD
:101DF00010B54BF28851692000F022F810B16FF055
:101E0000020010BD0C480068012804D114200B49C1
:101E10000968884706E00848006818B901200749A2
:101E2000096888470021012000F00AF810B16FF01E
:101E30000200E6E70020E4E724000020180000206C
:101E40002DE9FC4105460C46902D03D36FF00500AB
:101E5000BDE8FC814448006830B101281FD0022849
:101E600047D003287AD161E04048006810B96FF08C
:101E70000400EDE7FF208DF80000AA208DF8010096
:101E8000E8B28DF80200E0B28DF8030020128DF860
:101E9000040005216846354A1268904761E03348DE
:101EA000006810B96FF00400D2E7314800788DF86F
:101EB000000006208DF80100280A8DF80200E8B223
:101EC0008DF8030020128DF80400E0B28DF80500B3
:101ED0000621684600F062F8064630128DF80600CA
:101EE000F0B28DF8070008216846204A1268904732
:101EF00037E02048006810B96FF00400A8E7FF2021
:101F00008DF80000AA208DF80100E8B28DF80200DB
:101F1000E0B28DF8030020128DF804000522694616
:101F200013480078134B1B6898471AE01248006862
:101F300010B96FF004008BE7E0B28DF800002012BA
:101F40008DF80100E9B20A4A12785206100E0223F7
:101F50006A46094F3F68B84703E0FFE76FF00500A6
:101F600076E700BF002073E7240000200400002073
:101F70001C00002010000020080000200FB4054BBA
:101F800010B503A9044A029800F002F910BC5DF8EC
:101F900014FB00000D2900085C00002070B503460A
:101FA0000C46FF25FF26002200BF00BF09E0985C19
:101FB00080EA05010548405C80EA06050448465C65
:101FC000521CA242F3DB46EA052070BD9C2B0008A0
:101FD0009C2C000810B502460B460020002103E0AF
:101FE000545C0444E0B2491C9942F9D310BD02E0AC
:101FF00008C8121F08C1002AFAD170477047002094
:1020000001E001C1121F002AFBD170472DE9FF5FDB
:1020100082B00021DDE90430020DDDF840B0034359
:1020200018D044F61050A2F2FF3242431514119812
:1020300001281FD0A5EB0B00401C5FEA000A4FF0FF
:1020400000064E4FDFF83891B046504615D5CAF11C
:10205000000413E0119801244AA3012801D16FEA7A
:102060000B010298119AC0E90031C0E9024206B0A2
:10207000BDE8F09FCBF10000DFE704460021404AB5
:10208000491842EB0450CDE9001012E0E00707D0F8
:1020900032463B4640464946FEF73BFA8046894673
:1020A00032463B4610461946FEF733FA06460F46BF
:1020B0006410002CEAD1DDE90401DDE90023BAF166
:1020C000000F06DAFEF725FA42464B46FEF721FAE4
:1020D00005E0FEF790FA42464B46FEF78CFA0446BE
:1020E0000E460022284BFEF70DFB03D84FF0FF30C1
:1020F000014607E00022254B20463146FEF762F9F3
:10210000FEF7E8FA102409E0002C0ADB0A2200237B
:10211000FEF7F0F8039B30321A55641E50EA0102B4
:10212000F2D1641C039AC4F111031444119A012AD8
:1021300003D0012208430DD10AE0084304D0002057
:102140004FF0110B119072E7A3EB0B056D1E0DE024
:102150005B4504DD4FF0000205F1010504E003DA00
:102160004FF00002A5F10105002AECD00298119968
:10217000C0E90231C0E9004579E7000000001440E1
:102180000000F03F300000000000F0430000E03F9E
:102190002DE9FF4F95B09B468946064600250FE284
:1021A000252877D100242746F84A0121059400E02C
:1021B000044316F8013F203B01FA03F01042F7D127
:1021C00030782A2811D06FF02F033078A0F1300238
:1021D000092A16D8059A44F0020402EB820203EBA6
:1021E00042021044761C0590EFE759F8042B059243
:1021F000002A03DA504244F40054059044F00204EB
:10220000761C30782E2816D116F8010F44F00404FD
:102210002A280DD06FF02F023078A0F13003092B5F
:1022200009D807EB870302EB4303C718761CF3E7D3
:1022300059F8047B761C30786C280FD006DC4C28CB
:1022400017D068280DD06A2814D104E0742810D063
:102250007A280FD10DE044F400140AE044F480140D
:1022600001E044F440147278824202D104F58014F3
:10227000761C761C307866280BD013DC582877D073
:1022800009DC002875D04528F6D04628F4D0472828
:102290001AD19DE118E0632835D0642879D06528EB
:1022A00012D195E1702873D008DC6728F1D0692835
:1022B0006FD06E280DD06F2806D1B5E073282CD0D2
:1022C000752875D0782874D05A46179990476D1C98
:1022D00075E1C4F30250022809D003280DD0D9F8C3
:1022E000001004280DD00D6009F1040967E1D9F848
:1022F0000010EA17C1E90052F6E7D9F800100D8086
:10230000F2E70D70F0E719F8041B8DF800100020BB
:102310008DF80100EA46012003E059F804AB4FF0C4
:10232000FF3061074FF0000102D40DE008F1010118
:102330008846B9420FDA8045F8DB1AF80810002900
:10234000F4D108E008F1010188468142FADB1AF86D
:1023500008100029F6D105985B46A0EB0807214636
:102360003846179A00F094FA284400EB080507E075
:102370004DE029E10DE01AF8010B5A4617999047F4
:10238000B8F10108F7D25B4621463846179A13E1A7
:1023900042E00A220092C4F302524FF0000A022ADD
:1023A00008D059F804CB032A4FEAEC710AD00DE0AB
:1023B00029E02AE009F1070121F00702F2E802C151
:1023C000914609E00FFA8CFC4FEAEC71042A03D124
:1023D0004FFA8CFC4FEAEC71002907DA0A4600211B
:1023E000DCF1000C61EB02012D2202E0220504D594
:1023F0002B228DF80420012203E0E20701D02022E5
:10240000F7E7904659E00A2102E010220DE0102182
:102410004FF0000A00910BE010224FF0000A44F048
:1024200004040827009203E008224FF0000A0092FB
:10243000C4F30252022A05D059F804CB0021032A22
:1024400008D009E009F1070121F00702F2E802C112
:10245000914605E01FFA8CFC042A01D10CF0FF0C18
:102460004FF00008220728D5702806D0009B83F083
:10247000100353EA0A0305D00EE040228DF8042031
:10248000012208E05CEA010206D030228DF8042027
:102490008DF8050002229046009B83F0080353EA62
:1024A0000A030AD15CEA010201D1620705D5302294
:1024B0008DF804204FF001087F1E582804D034A066
:1024C00003900EA802900DE036A0F9E7534660464F
:1024D000009AFDF70FFF84460398825C0298401E25
:1024E000029002705CEA0100F0D1029806A9081A75
:1024F00000F1200A600702D524F4803400E00127AF
:10250000574502DDA7EB0A0000E0002000EB0A01BE
:10251000009005984144401A0590E00306D45B46BC
:102520002146179A059800F0B3F90544002706E004
:1025300001A85A46C05D179990476D1C7F1C4745FE
:10254000F6DBE0030CD55B462146179A059800F0B0
:102550009FF9054404E030205A46179990476D1CB6
:102560000099481E00900029F5DC08E002980299C5
:102570005A460078491C0291179990476D1CBAF190
:102580000001AAF1010AF1DC65E10000092801005F
:1025900030313233343536373839616263646566D9
:1025A000000000003031323334353637383941429B
:1025B000434445460000000000F058F90544761CED
:1025C000307800287FF4ECAD19B02846BDE8F08FD4
:1025D000620700D4062709F1070222F0070CFCE885
:1025E0000223E14603F000485FEA080C02D00FF234
:1025F000702C0DE05FEA045C02D50FF2682C07E056
:102600005FEAC47C02D00FF2602C01E0AFF2700CE4
:102610004FF0FF3823F00043CDF850C065280CD0B0
:1026200006DC452809D046281DD047283DD13DE08D
:10263000662818D067287ED138E00021112F01DBF1
:10264000112000E0781CCDE9000106A90EA8FFF7D3
:10265000DDFCDDE90F010E9A03910021009207F1E4
:10266000010A04914DE04FF000400097CDE90110C0
:1026700006A90EA8FFF7CAFCDDE90F0203920E9B24
:1026800011990022DDF80CA00093049211B9791C75
:1026900000EB010AB7EB0A0004D4C0F1FF3007F1E8
:1026A000010A0490AAEB0700019044E0012F00DA30
:1026B00001270021112F01DD112000E03846CDE96E
:1026C000000106A90EA8FFF7A1FCDDE90F010E9A93
:1026D0000391002104910092BA4621070CD403997A
:1026E000514500DA8A46BAF1010F05DD009AAAF1D8
:1026F0000101515C302908D0B84202DA10F1040F10
:1027000006DA0121CDE9011015E0AAF10101E9E79E
:10271000002805DC049901440491AAEB000102E0C1
:10272000411C514500DD8A460499401A401C019025
:102730004FF000400290200704D40198504501DB7F
:10274000CDF8048000208DF84F0002980DF14F075E
:10275000B0F1004F25D02B200E9002984FF00208C8
:1027600000280CDA404202902D200E9007E00A214A
:102770000298FDF7A9FD3031029007F8011DB8F16C
:102780000001A8F10108F2DC02980028EFD1791EBF
:102790000E980870307800F0200040F0450007F8EF
:1027A000020D12A8C01B00F107081498007800B1B0
:1027B000012000EB0A01019801EBE071059841440A
:1027C000401A401E0590E00306D45B462146179A46
:1027D000059800F05DF805441498007818B15A4641
:1027E000179990476D1CE00324D55B462146179A44
:1027F000059800F04DF805441CE00498002807DB1C
:10280000DDE90301884203DD0098405C179901E08F
:10281000179930205A469047049805F10105401C4D
:1028200004900198401E019004D12E205A46179919
:1028300090476D1CBAF10001AAF1010ADDDC05E048
:1028400017F8010B5A46179990476D1CB8F1000113
:10285000A8F10108F4DC5B462146179A0598ABE61F
:102860002D0000002B000000200000002DE9F041A9
:10287000044600251E461746880404D405E0394660
:102880002020B0476D1C641EF9D52846BDE8F081B4
:102890002DE9F041044600251E469046C80301D5A7
:1028A000302700E02027880404D505E0414638465B
:1028B000B0476D1C641EF9D52846BDE8F0810000C4
:1028C0000146114A12884A434FF0E0235A61002220
:1028D0009A611A46126942F001021A6100BF4FF074
:1028E000E022106900F001021AB100F48032002ADF
:1028F000F5D04FF0E022126922F001024FF0E02300
:102900001A6100229A6170472E00002070B50446BB
:102910000D4600BF80210548FEF77CFD0028F9D058
:10292000A1B20248FEF743FE204670BD00380140C8
:102930008EB0FEF7C5FC4FF4E130FEF75DFE4FF4BC
:102940001650FEF7C3FE50210020FEF72FFF6B4804
:10295000FFF728F96A48FFF725F86A48FEF71AFFDB
:102960006948FFF70BFBFDF785FFC6E0FDF7E8FFC1
:10297000664800780028F8D04FF0000A3BE00AF1E2
:102980003401634A32F91100FDF782FC05464FF02D
:102990008E41FDF73FFC04464FF08341FDF708FCF4
:1029A0000BA941F82A000AF13701594A32F91100FE
:1029B000FDF76EFC05464FF08E41FDF72BFC0446FB
:1029C0005449FDF7F5FB08A941F82A000AF13D0139
:1029D0004F4A32F91100FDF75BFC05464FF08E417E
:1029E000FDF718FC04464C49FDF7E2FB05A941F848
:1029F0002A000AF1010ABAF1030FC0DB434800784C
:102A000000F00100E8B10D98FDF74BFC04460D46BF
:102A10000C98FDF746FC06460F460B98FDF741FC67
:102A2000804642460B463DA0CDE90067CDE9024510
:102A3000FFF7A4FA354890F9000020F0010033496F
:102A400008703248007800F00200E8B10A98FDF7FB
:102A500028FC04460D460998FDF723FC804689466C
:102A60000898FDF71EFC064632460B4631A0CDE91C
:102A70000089CDE90245FFF781FA244890F900006A
:102A800020F00200214908702048007800F004007E
:102A9000E8B10798FDF705FC04460D460698FDF7DA
:102AA00000FC06460F460598FDF7FBFB80464246B4
:102AB0000B4626A0CDE90067CDE90245FFF75EFA97
:102AC000124890F9000020F00400104908700F48E7
:102AD000007800F0080080B10D48B0F97830B0F906
:102AE0007620B0F974101FA0FFF748FA074890F954
:102AF000000020F008000549087037E7890F00083A
:102B0000110F0008530C0008EC2D000800000020F5
:102B1000920100200000FA44000034436163633AEC
:102B2000252E336620252E336620252E33660D0A8A
:102B3000000000006779726F3A252E336620252E3B
:102B4000336620252E33660D0A000000616E676C27
:102B5000653A252E336620252E336620252E3366D2
:102B60000D0A00006D61673A256420256420256404
:102B70000D0A000000000000C012000080250000C7
:102B8000004B00000096000000E1000000C20100C0
:102B9000008403000008070000100E0000C18140FF
:102BA00001C0804101C0804100C1814001C080411D
:102BB00000C1814000C1814001C0804101C080410D
:102BC00000C1814000C1814001C0804100C18140FD
:102BD00001C0804101C0804100C1814001C08041ED
:102BE00000C1814000C1814001C0804100C18140DD
:102BF00001C0804101C0804100C1814000C18140CD
:102C000001C0804101C0804100C1814001C08041BC
:102C100000C1814000C1814001C0804101C08041AC
:102C200000C1814000C1814001C0804100C181409C
:102C300001C0804101C0804100C1814000C181408C
:102C400001C0804101C0804100C1814001C080417C
:102C500000C1814000C1814001C0804100C181406C
:102C600001C0804101C0804100C1814001C080415C
:102C700000C1814000C1814001C0804101C080414C
:102C800000C1814000C1814001C0804100C181403C
:102C900001C0804101C0804100C1814000C0C1012C
:102CA000C30302C2C60607C705C5C404CC0C0DCDBC
:102CB0000FCFCE0E0ACACB0BC90908C8D81819D92C
:102CC0001BDBDA1A1EDEDF1FDD1D1CDC14D4D5155C
:102CD000D71716D6D21213D311D1D010F03031F14C
:102CE00033F3F23236F6F737F53534F43CFCFD3D7C
:102CF000FF3F3EFEFA3A3BFB39F9F83828E8E9296C
:102D0000EB2B2AEAEE2E2FEF2DEDEC2CE42425E51B
:102D100027E7E62622E2E323E12120E0A06061A18B
:102D200063A3A26266A6A767A56564A46CACAD6D3B
:102D3000AF6F6EAEAA6A6BAB69A9A86878B8B979AB
:102D4000BB7B7ABABE7E7FBF7DBDBC7CB47475B5DB
:102D500077B7B67672B2B373B17170B050909151CB
:102D60009353529296565797559594549C5C5D9DFB
:102D70005F9F9E5E5A9A9B5B9959589888484989EB
:102D80004B8B8A4A4E8E8F4F8D4D4C8C448485459B
:102D90008747468682424383418180400D0A2A2A22
:102DA0002A2A2A2A2A2A2A2A2A2A2A2A2A2A2A2A83
:102DB0002A2A2A2A2A2A20202020202020202020D7
:102DC00048454C5020202020202020202020202A50
:102DD0002A2A2A2A2A2A2A2A2A2A2A2A2A2A2A2A53
:102DE0002A2A2A2A2A2A2A0D0A0000000D0A2A2A3B
:102DF0002A2A2A2A2A2A2A2A2A2A2A2A2A2A2A2A33
:102E00002A2A2A2A207769742D6D6F74696F6E20C3
:102E10006E6F726D616C206578616D706C652020DD
:102E20002A2A2A2A2A2A2A2A2A2A2A2A2A2A2A2A02
:102E30002A2A2A2A2A2A2A2A0D0A00002A2A2A2A83
:102E40002A2A2A2A2A2A2A2A2A2A2A2A2A2A2A2AE2
:102E50002A2A2A2A2A2A2A2A2A2A2A2A2A2A2A2AD2
:102E60002A2A2A2A2A2A2A2A2A2A2A2A2A2A2A2AC2
:102E70002A2A2A2A2A2A2A2A2A2A2A2A2A2A2A2AB2
:102E80002A2A2A2A2A2A2A2A2A2A0D0A0000000087
:102E9000554152542053454E443A435C725C6E2077
:102EA000202042617369632072657475726E2063BD
:102EB0006F6E74656E743A20616363656C657261F0
:102EC00074696F6E2C20616E67756C617220766517
:102ED0006C6F636974792C20616E676C652C206D52
:102EE00061676E65746963206669656C642E0D0A9E
:102EF00000000000554152542053454E443A6D5C49
:102F0000725C6E2020204D61676E65746963206677
:102F100069656C642063616C6962726174696F6E6B
:102F20002C41667465722063616C696272617469B8
:102F30006F6E2073656E643A202020655C725C6E53
:102F4000202020746F20696E646963617465207449
:102F5000686520656E640D0A000000000D0A2A2ACB
:102F60002A2A2A2A2A2A2A2A2A2A2A2A2A2A2A2AC1
:102F70002A2A2A2A2A2A09205749545F53444B5F98
:102F800044454D4F092A2A2A2A2A2A2A2A2A2A2A45
:102F90002A2A2A2A2A2A2A2A2A2A2A2A2A0000000F
:102FA000C02F00080000002060000000EE1F000895
:102FB000203000086000002058060000FE1F0008B6
:102FC00000FF000000000000000000000000000002
:102FD000000000000000000000000000FF000000F2
:102FE00000000000000000000000000000000000E1
:102FF0000000000000A24A040000000000000000E1
:10300000010203040607080900000000010203048E
:103010000102030406070809020406080000000074
:0400000508000131BD
:00000001FF
